{
  "contractName": "PRJXSwap",
  "abi": [
    {
      "inputs": [],
      "stateMutability": "nonpayable",
      "type": "constructor"
    },
    {
      "anonymous": false,
      "inputs": [
        {
          "indexed": true,
          "internalType": "address",
          "name": "previousOwner",
          "type": "address"
        },
        {
          "indexed": true,
          "internalType": "address",
          "name": "newOwner",
          "type": "address"
        }
      ],
      "name": "OwnershipTransferred",
      "type": "event"
    },
    {
      "anonymous": false,
      "inputs": [
        {
          "indexed": true,
          "internalType": "address",
          "name": "tokenAddress",
          "type": "address"
        }
      ],
      "name": "UpdateToken",
      "type": "event"
    },
    {
      "anonymous": false,
      "inputs": [
        {
          "indexed": true,
          "internalType": "address",
          "name": "router",
          "type": "address"
        },
        {
          "indexed": true,
          "internalType": "address",
          "name": "pair",
          "type": "address"
        }
      ],
      "name": "UpdateUniswaps",
      "type": "event"
    },
    {
      "inputs": [],
      "name": "geUnlockTime",
      "outputs": [
        {
          "internalType": "uint256",
          "name": "",
          "type": "uint256"
        }
      ],
      "stateMutability": "view",
      "type": "function"
    },
    {
      "inputs": [
        {
          "internalType": "uint256",
          "name": "time",
          "type": "uint256"
        }
      ],
      "name": "lock",
      "outputs": [],
      "stateMutability": "nonpayable",
      "type": "function"
    },
    {
      "inputs": [],
      "name": "owner",
      "outputs": [
        {
          "internalType": "address",
          "name": "",
          "type": "address"
        }
      ],
      "stateMutability": "view",
      "type": "function"
    },
    {
      "inputs": [],
      "name": "renounceOwnership",
      "outputs": [],
      "stateMutability": "nonpayable",
      "type": "function"
    },
    {
      "inputs": [],
      "name": "token",
      "outputs": [
        {
          "internalType": "contract IERC20",
          "name": "",
          "type": "address"
        }
      ],
      "stateMutability": "view",
      "type": "function"
    },
    {
      "inputs": [
        {
          "internalType": "address",
          "name": "newOwner",
          "type": "address"
        }
      ],
      "name": "transferOwnership",
      "outputs": [],
      "stateMutability": "nonpayable",
      "type": "function"
    },
    {
      "inputs": [],
      "name": "uniswapPair",
      "outputs": [
        {
          "internalType": "contract IUniswapV2Pair",
          "name": "",
          "type": "address"
        }
      ],
      "stateMutability": "view",
      "type": "function"
    },
    {
      "inputs": [],
      "name": "uniswapRouter",
      "outputs": [
        {
          "internalType": "contract IUniswapV2Router02",
          "name": "",
          "type": "address"
        }
      ],
      "stateMutability": "view",
      "type": "function"
    },
    {
      "inputs": [],
      "name": "unlock",
      "outputs": [],
      "stateMutability": "nonpayable",
      "type": "function"
    },
    {
      "stateMutability": "payable",
      "type": "receive"
    },
    {
      "inputs": [],
      "name": "swapExactEthForToken",
      "outputs": [],
      "stateMutability": "payable",
      "type": "function"
    },
    {
      "inputs": [
        {
          "internalType": "uint256",
          "name": "amount0",
          "type": "uint256"
        },
        {
          "internalType": "uint256",
          "name": "amount1",
          "type": "uint256"
        }
      ],
      "name": "quote",
      "outputs": [
        {
          "internalType": "uint256",
          "name": "",
          "type": "uint256"
        }
      ],
      "stateMutability": "view",
      "type": "function"
    },
    {
      "inputs": [
        {
          "internalType": "uint256",
          "name": "tokenAmount",
          "type": "uint256"
        }
      ],
      "name": "swapExactTokensForEth",
      "outputs": [],
      "stateMutability": "nonpayable",
      "type": "function"
    },
    {
      "inputs": [
        {
          "internalType": "address",
          "name": "tokenAddress",
          "type": "address"
        }
      ],
      "name": "updateToken",
      "outputs": [],
      "stateMutability": "nonpayable",
      "type": "function"
    },
    {
      "inputs": [
        {
          "internalType": "address",
          "name": "router",
          "type": "address"
        },
        {
          "internalType": "address",
          "name": "pair",
          "type": "address"
        }
      ],
      "name": "updateUniswaps",
      "outputs": [],
      "stateMutability": "nonpayable",
      "type": "function"
    }
  ],
  "bytecode": "0x6080604052600380546001600160a01b0319908116737a250d5630b4cf539739df2c5dacb4c659f2488d1790915560048054909116734342d13560c7e8cd716e83e450f7432df693680e17905534801561005857600080fd5b50600080546001600160a01b031916339081178255604051909182917f8be0079c531659141344cd1fd0a4f28419497f9722a3daafe3b4186f6b6457e0908290a350610eed806100a96000396000f3fe6080604052600436106100e15760003560e01c8063a69df4b51161007f578063dd46706411610059578063dd4670641461021f578063ebe860ef1461023f578063f2fde38b1461025f578063fc0c546a1461027f57600080fd5b8063a69df4b5146101d5578063b6c52324146101ea578063c816841b146101ff57600080fd5b8063735de9f7116100bb578063735de9f71461013f5780637ad3def21461017757806384ed18a1146101975780638da5cb5b146101b757600080fd5b8063315f1a41146100ed57806351dd09c714610120578063715018a61461012a57600080fd5b366100e857005b600080fd5b3480156100f957600080fd5b5061010d610108366004610d37565b61029f565b6040519081526020015b60405180910390f35b610128610478565b005b34801561013657600080fd5b506101286105d2565b34801561014b57600080fd5b5060035461015f906001600160a01b031681565b6040516001600160a01b039091168152602001610117565b34801561018357600080fd5b50610128610192366004610c19565b61063d565b3480156101a357600080fd5b506101286101b2366004610c5a565b6106b1565b3480156101c357600080fd5b506000546001600160a01b031661015f565b3480156101e157600080fd5b50610128610739565b3480156101f657600080fd5b5060025461010d565b34801561020b57600080fd5b5060045461015f906001600160a01b031681565b34801561022b57600080fd5b5061012861023a366004610d05565b61083f565b34801561024b57600080fd5b5061012861025a366004610d05565b6108c4565b34801561026b57600080fd5b5061012861027a366004610c19565b610b25565b34801561028b57600080fd5b5060055461015f906001600160a01b031681565b6000806000600460009054906101000a90046001600160a01b03166001600160a01b0316630902f1ac6040518163ffffffff1660e01b815260040160606040518083038186803b1580156102f257600080fd5b505afa158015610306573d6000803e3d6000fd5b505050506040513d601f19601f8201168201806040525081019061032a9190610cb5565b50915091506000856000146103d157600354604051632b58577b60e21b8152600481018890526001600160701b038086166024830152841660448201526000916001600160a01b03169063ad615dec9060640160206040518083038186803b15801561039557600080fd5b505afa1580156103a9573d6000803e3d6000fd5b505050506040513d601f19601f820116820180604052508101906103cd9190610d1e565b9150505b841561046f57600354604051632b58577b60e21b8152600481018790526001600160701b038085166024830152851660448201526000916001600160a01b03169063ad615dec9060640160206040518083038186803b15801561043357600080fd5b505afa158015610447573d6000803e3d6000fd5b505050506040513d601f19601f8201168201806040525081019061046b9190610d1e565b9150505b95945050505050565b6040805160028082526060820183526000926020830190803683375050600354604080516315ab88c960e31b815290519394506001600160a01b039091169263ad5c464892506004808301926020929190829003018186803b1580156104dd57600080fd5b505afa1580156104f1573d6000803e3d6000fd5b505050506040513d601f19601f820116820180604052508101906105159190610c3d565b8160008151811061052857610528610e69565b6001600160a01b03928316602091820292909201015260055482519116908290600190811061055957610559610e69565b6001600160a01b0392831660209182029290920101526003541663b6f9de953460008433426040518663ffffffff1660e01b815260040161059d9493929190610d9d565b6000604051808303818588803b1580156105b657600080fd5b505af11580156105ca573d6000803e3d6000fd5b505050505050565b6000546001600160a01b031633146106055760405162461bcd60e51b81526004016105fc90610dd2565b60405180910390fd5b600080546040516001600160a01b0390911690600080516020610e98833981519152908390a3600080546001600160a01b0319169055565b6000546001600160a01b031633146106675760405162461bcd60e51b81526004016105fc90610dd2565b600580546001600160a01b0319166001600160a01b0383169081179091556040517fc94c224579611362c1287bb3e82a13fbd4a04dd97c05e9fc3acf9a8c62194adb90600090a250565b6000546001600160a01b031633146106db5760405162461bcd60e51b81526004016105fc90610dd2565b600380546001600160a01b03199081166001600160a01b03858116918217909355600480549092169284169283179091556040517f115b482a99ee5de615063d70a8f754848835c5f79e4883c4d68d04f0974322aa90600090a35050565b6001546001600160a01b0316331461079f5760405162461bcd60e51b815260206004820152602360248201527f596f7520646f6e27742068617665207065726d697373696f6e20746f20756e6c6044820152626f636b60e81b60648201526084016105fc565b60025442116107f05760405162461bcd60e51b815260206004820152601f60248201527f436f6e7472616374206973206c6f636b656420756e74696c203720646179730060448201526064016105fc565b600154600080546040516001600160a01b039384169390911691600080516020610e9883398151915291a3600154600080546001600160a01b0319166001600160a01b03909216919091179055565b6000546001600160a01b031633146108695760405162461bcd60e51b81526004016105fc90610dd2565b60008054600180546001600160a01b03199081166001600160a01b038416179091551690556108988142610e43565b600255600080546040516001600160a01b0390911690600080516020610e98833981519152908390a350565b604080516002808252606082018352600092602083019080368337505060055482519293506001600160a01b03169183915060009061090557610905610e69565b6001600160a01b03928316602091820292909201810191909152600354604080516315ab88c960e31b81529051919093169263ad5c4648926004808301939192829003018186803b15801561095957600080fd5b505afa15801561096d573d6000803e3d6000fd5b505050506040513d601f19601f820116820180604052508101906109919190610c3d565b816001815181106109a4576109a4610e69565b6001600160a01b039283166020918202929092010152600554166323b872dd336040516001600160e01b031960e084901b1681526001600160a01b03909116600482015230602482015260448101859052606401602060405180830381600087803b158015610a1257600080fd5b505af1158015610a26573d6000803e3d6000fd5b505050506040513d601f19601f82011682018060405250810190610a4a9190610c93565b5060055460035460405163095ea7b360e01b81526001600160a01b0391821660048201526024810185905291169063095ea7b390604401602060405180830381600087803b158015610a9b57600080fd5b505af1158015610aaf573d6000803e3d6000fd5b505050506040513d601f19601f82011682018060405250810190610ad39190610c93565b506003546001600160a01b031663791ac9478360008433426040518663ffffffff1660e01b8152600401610b0b959493929190610e07565b600060405180830381600087803b1580156105b657600080fd5b6000546001600160a01b03163314610b4f5760405162461bcd60e51b81526004016105fc90610dd2565b6001600160a01b038116610bb45760405162461bcd60e51b815260206004820152602660248201527f4f776e61626c653a206e6577206f776e657220697320746865207a65726f206160448201526564647265737360d01b60648201526084016105fc565b600080546040516001600160a01b0380851693921691600080516020610e9883398151915291a3600080546001600160a01b0319166001600160a01b0392909216919091179055565b80516001600160701b0381168114610c1457600080fd5b919050565b600060208284031215610c2b57600080fd5b8135610c3681610e7f565b9392505050565b600060208284031215610c4f57600080fd5b8151610c3681610e7f565b60008060408385031215610c6d57600080fd5b8235610c7881610e7f565b91506020830135610c8881610e7f565b809150509250929050565b600060208284031215610ca557600080fd5b81518015158114610c3657600080fd5b600080600060608486031215610cca57600080fd5b610cd384610bfd565b9250610ce160208501610bfd565b9150604084015163ffffffff81168114610cfa57600080fd5b809150509250925092565b600060208284031215610d1757600080fd5b5035919050565b600060208284031215610d3057600080fd5b5051919050565b60008060408385031215610d4a57600080fd5b50508035926020909101359150565b600081518084526020808501945080840160005b83811015610d925781516001600160a01b031687529582019590820190600101610d6d565b509495945050505050565b848152608060208201526000610db66080830186610d59565b6001600160a01b03949094166040830152506060015292915050565b6020808252818101527f4f776e61626c653a2063616c6c6572206973206e6f7420746865206f776e6572604082015260600190565b85815284602082015260a060408201526000610e2660a0830186610d59565b6001600160a01b0394909416606083015250608001529392505050565b60008219821115610e6457634e487b7160e01b600052601160045260246000fd5b500190565b634e487b7160e01b600052603260045260246000fd5b6001600160a01b0381168114610e9457600080fd5b5056fe8be0079c531659141344cd1fd0a4f28419497f9722a3daafe3b4186f6b6457e0a2646970667358221220838d8298d2ea610a230bd9e4b9683c5c48c31383c92e2930ee2d2944dee5157b64736f6c63430008070033",
  "immutableReferences": {},
  "source": "\n// SPDX-License-Identifier: MIT\n\npragma solidity ^ 0.8.7;\n\ninterface IERC20 {\n\n    function totalSupply() external view returns (uint256);\n\n    /**\n     * @dev Returns the amount of tokens owned by `account`.\n     */\n    function balanceOf(address account) external view returns (uint256);\n\n    /**\n     * @dev Moves `amount` tokens from the caller's account to `recipient`.\n     *\n     * Returns a boolean value indicating whether the operation succeeded.\n     *\n     * Emits a {Transfer} event.\n     */\n    function transfer(address recipient, uint256 amount) external returns (bool);\n\n    /**\n     * @dev Returns the remaining number of tokens that `spender` will be\n     * allowed to spend on behalf of `owner` through {transferFrom}. This is\n     * zero by default.\n     *\n     * This value changes when {approve} or {transferFrom} are called.\n     */\n    function allowance(address owner, address spender) external view returns (uint256);\n\n    /**\n     * @dev Sets `amount` as the allowance of `spender` over the caller's tokens.\n     *\n     * Returns a boolean value indicating whether the operation succeeded.\n     *\n     * IMPORTANT: Beware that changing an allowance with this method brings the risk\n     * that someone may use both the old and the new allowance by unfortunate\n     * transaction ordering. One possible solution to mitigate this race\n     * condition is to first reduce the spender's allowance to 0 and set the\n     * desired value afterwards:\n     * https://github.com/ethereum/EIPs/issues/20#issuecomment-263524729\n     *\n     * Emits an {Approval} event.\n     */\n    function approve(address spender, uint256 amount) external returns (bool);\n\n    /**\n     * @dev Moves `amount` tokens from `sender` to `recipient` using the\n     * allowance mechanism. `amount` is then deducted from the caller's\n     * allowance.\n     *\n     * Returns a boolean value indicating whether the operation succeeded.\n     *\n     * Emits a {Transfer} event.\n     */\n    function transferFrom(address sender, address recipient, uint256 amount) external returns (bool);\n\n    /**\n     * @dev Emitted when `value` tokens are moved from one account (`from`) to\n     * another (`to`).\n     *\n     * Note that `value` may be zero.\n     */\n    event Transfer(address indexed from, address indexed to, uint256 value);\n\n    /**\n     * @dev Emitted when the allowance of a `spender` for an `owner` is set by\n     * a call to {approve}. `value` is the new allowance.\n     */\n    event Approval(address indexed owner, address indexed spender, uint256 value);\n}\n\n/**\n * @dev Wrappers over Solidity's arithmetic operations with added overflow\n * checks.\n *\n * Arithmetic operations in Solidity wrap on overflow. This can easily result\n * in bugs, because programmers usually assume that an overflow raises an\n * error, which is the standard behavior in high level programming languages.\n * `SafeMath` restores this intuition by reverting the transaction when an\n * operation overflows.\n *\n * Using this library instead of the unchecked operations eliminates an entire\n * class of bugs, so it's recommended to use it always.\n */\nlibrary SafeMath {\n    /**\n     * @dev Returns the addition of two unsigned integers, reverting on\n     * overflow.\n     *\n     * Counterpart to Solidity's `+` operator.\n     *\n     * Requirements:\n     *\n     * - Addition cannot overflow.\n     */\n    function add(uint256 a, uint256 b) internal pure returns (uint256) {\n        uint256 c = a + b;\n        require(c >= a, \"SafeMath: addition overflow\");\n\n        return c;\n    }\n\n    /**\n     * @dev Returns the subtraction of two unsigned integers, reverting on\n     * overflow (when the result is negative).\n     *\n     * Counterpart to Solidity's `-` operator.\n     *\n     * Requirements:\n     *\n     * - Subtraction cannot overflow.\n     */\n    function sub(uint256 a, uint256 b) internal pure returns (uint256) {\n        return sub(a, b, \"SafeMath: subtraction overflow\");\n    }\n\n    /**\n     * @dev Returns the subtraction of two unsigned integers, reverting with custom message on\n     * overflow (when the result is negative).\n     *\n     * Counterpart to Solidity's `-` operator.\n     *\n     * Requirements:\n     *\n     * - Subtraction cannot overflow.\n     */\n    function sub(uint256 a, uint256 b, string memory errorMessage) internal pure returns (uint256) {\n        require(b <= a, errorMessage);\n        uint256 c = a - b;\n\n        return c;\n    }\n\n    /**\n     * @dev Returns the multiplication of two unsigned integers, reverting on\n     * overflow.\n     *\n     * Counterpart to Solidity's `*` operator.\n     *\n     * Requirements:\n     *\n     * - Multiplication cannot overflow.\n     */\n    function mul(uint256 a, uint256 b) internal pure returns (uint256) {\n        // Gas optimization: this is cheaper than requiring 'a' not being zero, but the\n        // benefit is lost if 'b' is also tested.\n        // See: https://github.com/OpenZeppelin/openzeppelin-contracts/pull/522\n        if (a == 0) {\n            return 0;\n        }\n\n        uint256 c = a * b;\n        require(c / a == b, \"SafeMath: multiplication overflow\");\n\n        return c;\n    }\n\n    /**\n     * @dev Returns the integer division of two unsigned integers. Reverts on\n     * division by zero. The result is rounded towards zero.\n     *\n     * Counterpart to Solidity's `/` operator. Note: this function uses a\n     * `revert` opcode (which leaves remaining gas untouched) while Solidity\n     * uses an invalid opcode to revert (consuming all remaining gas).\n     *\n     * Requirements:\n     *\n     * - The divisor cannot be zero.\n     */\n    function div(uint256 a, uint256 b) internal pure returns (uint256) {\n        return div(a, b, \"SafeMath: division by zero\");\n    }\n\n    /**\n     * @dev Returns the integer division of two unsigned integers. Reverts with custom message on\n     * division by zero. The result is rounded towards zero.\n     *\n     * Counterpart to Solidity's `/` operator. Note: this function uses a\n     * `revert` opcode (which leaves remaining gas untouched) while Solidity\n     * uses an invalid opcode to revert (consuming all remaining gas).\n     *\n     * Requirements:\n     *\n     * - The divisor cannot be zero.\n     */\n    function div(uint256 a, uint256 b, string memory errorMessage) internal pure returns (uint256) {\n        require(b > 0, errorMessage);\n        uint256 c = a / b;\n        // assert(a == b * c + a % b); // There is no case in which this doesn't hold\n\n        return c;\n    }\n\n    /**\n     * @dev Returns the remainder of dividing two unsigned integers. (unsigned integer modulo),\n     * Reverts when dividing by zero.\n     *\n     * Counterpart to Solidity's `%` operator. This function uses a `revert`\n     * opcode (which leaves remaining gas untouched) while Solidity uses an\n     * invalid opcode to revert (consuming all remaining gas).\n     *\n     * Requirements:\n     *\n     * - The divisor cannot be zero.\n     */\n    function mod(uint256 a, uint256 b) internal pure returns (uint256) {\n        return mod(a, b, \"SafeMath: modulo by zero\");\n    }\n\n    /**\n     * @dev Returns the remainder of dividing two unsigned integers. (unsigned integer modulo),\n     * Reverts with custom message when dividing by zero.\n     *\n     * Counterpart to Solidity's `%` operator. This function uses a `revert`\n     * opcode (which leaves remaining gas untouched) while Solidity uses an\n     * invalid opcode to revert (consuming all remaining gas).\n     *\n     * Requirements:\n     *\n     * - The divisor cannot be zero.\n     */\n    function mod(uint256 a, uint256 b, string memory errorMessage) internal pure returns (uint256) {\n        require(b != 0, errorMessage);\n        return a % b;\n    }\n}\n\nabstract contract Context {\n    function _msgSender() internal view virtual returns (address payable) {\n        return payable(msg.sender);\n    }\n\n    function _msgData() internal view virtual returns (bytes memory) {\n        this; // silence state mutability warning without generating bytecode - see https://github.com/ethereum/solidity/issues/2691\n        return msg.data;\n    }\n}\n\n/**\n * @dev Collection of functions related to the address type\n */\nlibrary Address {\n    /**\n     * @dev Returns true if `account` is a contract.\n     *\n     * [IMPORTANT]\n     * ====\n     * It is unsafe to assume that an address for which this function returns\n     * false is an externally-owned account (EOA) and not a contract.\n     *\n     * Among others, `isContract` will return false for the following\n     * types of addresses:\n     *\n     *  - an externally-owned account\n     *  - a contract in construction\n     *  - an address where a contract will be created\n     *  - an address where a contract lived, but was destroyed\n     * ====\n     */\n    function isContract(address account) internal view returns (bool) {\n        // According to EIP-1052, 0x0 is the value returned for not-yet created accounts\n        // and 0xc5d2460186f7233c927e7db2dcc703c0e500b653ca82273b7bfad8045d85a470 is returned\n        // for accounts without code, i.e. `keccak256('')`\n        bytes32 codehash;\n        bytes32 accountHash = 0xc5d2460186f7233c927e7db2dcc703c0e500b653ca82273b7bfad8045d85a470;\n        // solhint-disable-next-line no-inline-assembly\n        assembly { codehash := extcodehash(account) }\n        return (codehash != accountHash && codehash != 0x0);\n    }\n\n    /**\n     * @dev Replacement for Solidity's `transfer`: sends `amount` wei to\n     * `recipient`, forwarding all available gas and reverting on errors.\n     *\n     * https://eips.ethereum.org/EIPS/eip-1884[EIP1884] increases the gas cost\n     * of certain opcodes, possibly making contracts go over the 2300 gas limit\n     * imposed by `transfer`, making them unable to receive funds via\n     * `transfer`. {sendValue} removes this limitation.\n     *\n     * https://diligence.consensys.net/posts/2019/09/stop-using-soliditys-transfer-now/[Learn more].\n     *\n     * IMPORTANT: because control is transferred to `recipient`, care must be\n     * taken to not create reentrancy vulnerabilities. Consider using\n     * {ReentrancyGuard} or the\n     * https://solidity.readthedocs.io/en/v0.5.11/security-considerations.html#use-the-checks-effects-interactions-pattern[checks-effects-interactions pattern].\n     */\n    function sendValue(address payable recipient, uint256 amount) internal {\n        require(address(this).balance >= amount, \"Address: insufficient balance\");\n\n        // solhint-disable-next-line avoid-low-level-calls, avoid-call-value\n        (bool success, ) = recipient.call{ value: amount }(\"\");\n        require(success, \"Address: unable to send value, recipient may have reverted\");\n    }\n\n    /**\n     * @dev Performs a Solidity function call using a low level `call`. A\n     * plain`call` is an unsafe replacement for a function call: use this\n     * function instead.\n     *\n     * If `target` reverts with a revert reason, it is bubbled up by this\n     * function (like regular Solidity function calls).\n     *\n     * Returns the raw returned data. To convert to the expected return value,\n     * use https://solidity.readthedocs.io/en/latest/units-and-global-variables.html?highlight=abi.decode#abi-encoding-and-decoding-functions[`abi.decode`].\n     *\n     * Requirements:\n     *\n     * - `target` must be a contract.\n     * - calling `target` with `data` must not revert.\n     *\n     * _Available since v3.1._\n     */\n    function functionCall(address target, bytes memory data) internal returns (bytes memory) {\n      return functionCall(target, data, \"Address: low-level call failed\");\n    }\n\n    /**\n     * @dev Same as {xref-Address-functionCall-address-bytes-}[`functionCall`], but with\n     * `errorMessage` as a fallback revert reason when `target` reverts.\n     *\n     * _Available since v3.1._\n     */\n    function functionCall(address target, bytes memory data, string memory errorMessage) internal returns (bytes memory) {\n        return _functionCallWithValue(target, data, 0, errorMessage);\n    }\n\n    /**\n     * @dev Same as {xref-Address-functionCall-address-bytes-}[`functionCall`],\n     * but also transferring `value` wei to `target`.\n     *\n     * Requirements:\n     *\n     * - the calling contract must have an ETH balance of at least `value`.\n     * - the called Solidity function must be `payable`.\n     *\n     * _Available since v3.1._\n     */\n    function functionCallWithValue(address target, bytes memory data, uint256 value) internal returns (bytes memory) {\n        return functionCallWithValue(target, data, value, \"Address: low-level call with value failed\");\n    }\n\n    /**\n     * @dev Same as {xref-Address-functionCallWithValue-address-bytes-uint256-}[`functionCallWithValue`], but\n     * with `errorMessage` as a fallback revert reason when `target` reverts.\n     *\n     * _Available since v3.1._\n     */\n    function functionCallWithValue(address target, bytes memory data, uint256 value, string memory errorMessage) internal returns (bytes memory) {\n        require(address(this).balance >= value, \"Address: insufficient balance for call\");\n        return _functionCallWithValue(target, data, value, errorMessage);\n    }\n\n    function _functionCallWithValue(address target, bytes memory data, uint256 weiValue, string memory errorMessage) private returns (bytes memory) {\n        require(isContract(target), \"Address: call to non-contract\");\n\n        // solhint-disable-next-line avoid-low-level-calls\n        (bool success, bytes memory returndata) = target.call{ value: weiValue }(data);\n        if (success) {\n            return returndata;\n        } else {\n            // Look for revert reason and bubble it up if present\n            if (returndata.length > 0) {\n                // The easiest way to bubble the revert reason is using memory via assembly\n\n                // solhint-disable-next-line no-inline-assembly\n                assembly {\n                    let returndata_size := mload(returndata)\n                    revert(add(32, returndata), returndata_size)\n                }\n            } else {\n                revert(errorMessage);\n            }\n        }\n    }\n}\n\n/**\n * @dev Contract module which provides a basic access control mechanism, where\n * there is an account (an owner) that can be granted exclusive access to\n * specific functions.\n *\n * By default, the owner account will be the one that deploys the contract. This\n * can later be changed with {transferOwnership}.\n *\n * This module is used through inheritance. It will make available the modifier\n * `onlyOwner`, which can be applied to your functions to restrict their use to\n * the owner.\n */\ncontract Ownable is Context {\n    address private _owner;\n    address private _previousOwner;\n    uint256 private _lockTime;\n\n    event OwnershipTransferred(address indexed previousOwner, address indexed newOwner);\n\n    /**\n     * @dev Initializes the contract setting the deployer as the initial owner.\n     */\n    constructor () {\n        address msgSender = _msgSender();\n        _owner = msgSender;\n        emit OwnershipTransferred(address(0), msgSender);\n    }\n\n    /**\n     * @dev Returns the address of the current owner.\n     */\n    function owner() public view returns (address) {\n        return _owner;\n    }\n\n    /**\n     * @dev Throws if called by any account other than the owner.\n     */\n    modifier onlyOwner() {\n        require(_owner == _msgSender(), \"Ownable: caller is not the owner\");\n        _;\n    }\n\n    /**\n     * @dev Leaves the contract without owner. It will not be possible to call\n     * `onlyOwner` functions anymore. Can only be called by the current owner.\n     *\n     * NOTE: Renouncing ownership will leave the contract without an owner,\n     * thereby removing any functionality that is only available to the owner.\n     */\n    function renounceOwnership() public virtual onlyOwner {\n        emit OwnershipTransferred(_owner, address(0));\n        _owner = address(0);\n    }\n\n    /**\n     * @dev Transfers ownership of the contract to a new account (`newOwner`).\n     * Can only be called by the current owner.\n     */\n    function transferOwnership(address newOwner) public virtual onlyOwner {\n        require(newOwner != address(0), \"Ownable: new owner is the zero address\");\n        emit OwnershipTransferred(_owner, newOwner);\n        _owner = newOwner;\n    }\n\n    function geUnlockTime() public view returns (uint256) {\n        return _lockTime;\n    }\n\n    //Locks the contract for owner for the amount of time provided\n    function lock(uint256 time) public virtual onlyOwner {\n        _previousOwner = _owner;\n        _owner = address(0);\n        _lockTime = block.timestamp + time;\n        emit OwnershipTransferred(_owner, address(0));\n    }\n    \n    //Unlocks the contract for owner when _lockTime is exceeds\n    function unlock() public virtual {\n        require(_previousOwner == msg.sender, \"You don't have permission to unlock\");\n        require(block.timestamp > _lockTime , \"Contract is locked until 7 days\");\n        emit OwnershipTransferred(_owner, _previousOwner);\n        _owner = _previousOwner;\n    }\n}\n\ninterface IUniswapV2Factory {\n    event PairCreated(address indexed token0, address indexed token1, address pair, uint);\n\n    function feeTo() external view returns (address);\n    function feeToSetter() external view returns (address);\n\n    function getPair(address tokenA, address tokenB) external view returns (address pair);\n    function allPairs(uint) external view returns (address pair);\n    function allPairsLength() external view returns (uint);\n\n    function createPair(address tokenA, address tokenB) external returns (address pair);\n\n    function setFeeTo(address) external;\n    function setFeeToSetter(address) external;\n}\n\ninterface IUniswapV2Pair {\n    event Approval(address indexed owner, address indexed spender, uint value);\n    event Transfer(address indexed from, address indexed to, uint value);\n\n    function name() external pure returns (string memory);\n    function symbol() external pure returns (string memory);\n    function decimals() external pure returns (uint8);\n    function totalSupply() external view returns (uint);\n    function balanceOf(address owner) external view returns (uint);\n    function allowance(address owner, address spender) external view returns (uint);\n\n    function approve(address spender, uint value) external returns (bool);\n    function transfer(address to, uint value) external returns (bool);\n    function transferFrom(address from, address to, uint value) external returns (bool);\n\n    function DOMAIN_SEPARATOR() external view returns (bytes32);\n    function PERMIT_TYPEHASH() external pure returns (bytes32);\n    function nonces(address owner) external view returns (uint);\n\n    function permit(address owner, address spender, uint value, uint deadline, uint8 v, bytes32 r, bytes32 s) external;\n\n    event Mint(address indexed sender, uint amount0, uint amount1);\n    event Burn(address indexed sender, uint amount0, uint amount1, address indexed to);\n    event Swap(\n        address indexed sender,\n        uint amount0In,\n        uint amount1In,\n        uint amount0Out,\n        uint amount1Out,\n        address indexed to\n    );\n    event Sync(uint112 reserve0, uint112 reserve1);\n\n    function MINIMUM_LIQUIDITY() external pure returns (uint);\n    function factory() external view returns (address);\n    function token0() external view returns (address);\n    function token1() external view returns (address);\n    function getReserves() external view returns (uint112 reserve0, uint112 reserve1, uint32 blockTimestampLast);\n    function price0CumulativeLast() external view returns (uint);\n    function price1CumulativeLast() external view returns (uint);\n    function kLast() external view returns (uint);\n\n    function mint(address to) external returns (uint liquidity);\n    function burn(address to) external returns (uint amount0, uint amount1);\n    function swap(uint amount0Out, uint amount1Out, address to, bytes calldata data) external;\n    function skim(address to) external;\n    function sync() external;\n\n    function initialize(address, address) external;\n}\n\ninterface IUniswapV2Router01 {\n    function factory() external pure returns (address);\n    function WETH() external pure returns (address);\n\n    function addLiquidity(\n        address tokenA,\n        address tokenB,\n        uint amountADesired,\n        uint amountBDesired,\n        uint amountAMin,\n        uint amountBMin,\n        address to,\n        uint deadline\n    ) external returns (uint amountA, uint amountB, uint liquidity);\n    function addLiquidityETH(\n        address token,\n        uint amountTokenDesired,\n        uint amountTokenMin,\n        uint amountETHMin,\n        address to,\n        uint deadline\n    ) external payable returns (uint amountToken, uint amountETH, uint liquidity);\n    function removeLiquidity(\n        address tokenA,\n        address tokenB,\n        uint liquidity,\n        uint amountAMin,\n        uint amountBMin,\n        address to,\n        uint deadline\n    ) external returns (uint amountA, uint amountB);\n    function removeLiquidityETH(\n        address token,\n        uint liquidity,\n        uint amountTokenMin,\n        uint amountETHMin,\n        address to,\n        uint deadline\n    ) external returns (uint amountToken, uint amountETH);\n    function removeLiquidityWithPermit(\n        address tokenA,\n        address tokenB,\n        uint liquidity,\n        uint amountAMin,\n        uint amountBMin,\n        address to,\n        uint deadline,\n        bool approveMax, uint8 v, bytes32 r, bytes32 s\n    ) external returns (uint amountA, uint amountB);\n    function removeLiquidityETHWithPermit(\n        address token,\n        uint liquidity,\n        uint amountTokenMin,\n        uint amountETHMin,\n        address to,\n        uint deadline,\n        bool approveMax, uint8 v, bytes32 r, bytes32 s\n    ) external returns (uint amountToken, uint amountETH);\n    function swapExactTokensForTokens(\n        uint amountIn,\n        uint amountOutMin,\n        address[] calldata path,\n        address to,\n        uint deadline\n    ) external returns (uint[] memory amounts);\n    function swapTokensForExactTokens(\n        uint amountOut,\n        uint amountInMax,\n        address[] calldata path,\n        address to,\n        uint deadline\n    ) external returns (uint[] memory amounts);\n    function swapExactETHForTokens(uint amountOutMin, address[] calldata path, address to, uint deadline)\n        external\n        payable\n        returns (uint[] memory amounts);\n    function swapTokensForExactETH(uint amountOut, uint amountInMax, address[] calldata path, address to, uint deadline)\n        external\n        returns (uint[] memory amounts);\n    function swapExactTokensForETH(uint amountIn, uint amountOutMin, address[] calldata path, address to, uint deadline)\n        external\n        returns (uint[] memory amounts);\n    function swapETHForExactTokens(uint amountOut, address[] calldata path, address to, uint deadline)\n        external\n        payable\n        returns (uint[] memory amounts);\n\n    function quote(uint amountA, uint reserveA, uint reserveB) external pure returns (uint amountB);\n    function getAmountOut(uint amountIn, uint reserveIn, uint reserveOut) external pure returns (uint amountOut);\n    function getAmountIn(uint amountOut, uint reserveIn, uint reserveOut) external pure returns (uint amountIn);\n    function getAmountsOut(uint amountIn, address[] calldata path) external view returns (uint[] memory amounts);\n    function getAmountsIn(uint amountOut, address[] calldata path) external view returns (uint[] memory amounts);\n}\n\ninterface IUniswapV2Router02 is IUniswapV2Router01 {\n    function removeLiquidityETHSupportingFeeOnTransferTokens(\n        address token,\n        uint liquidity,\n        uint amountTokenMin,\n        uint amountETHMin,\n        address to,\n        uint deadline\n    ) external returns (uint amountETH);\n    function removeLiquidityETHWithPermitSupportingFeeOnTransferTokens(\n        address token,\n        uint liquidity,\n        uint amountTokenMin,\n        uint amountETHMin,\n        address to,\n        uint deadline,\n        bool approveMax, uint8 v, bytes32 r, bytes32 s\n    ) external returns (uint amountETH);\n\n    function swapExactTokensForTokensSupportingFeeOnTransferTokens(\n        uint amountIn,\n        uint amountOutMin,\n        address[] calldata path,\n        address to,\n        uint deadline\n    ) external;\n    function swapExactETHForTokensSupportingFeeOnTransferTokens(\n        uint amountOutMin,\n        address[] calldata path,\n        address to,\n        uint deadline\n    ) external payable;\n    function swapExactTokensForETHSupportingFeeOnTransferTokens(\n        uint amountIn,\n        uint amountOutMin,\n        address[] calldata path,\n        address to,\n        uint deadline\n    ) external;\n}\n\n\ncontract PRJXSwap is Context, Ownable {\n    using SafeMath for uint256;\n    using Address for address;\n\n    IUniswapV2Router02 public uniswapRouter = IUniswapV2Router02(0x7a250d5630B4cF539739dF2C5dAcb4c659F2488D);\n    IUniswapV2Pair public uniswapPair = IUniswapV2Pair(0x4342d13560c7E8Cd716E83e450F7432DF693680E);\n    IERC20 public token;\n\n    receive() external payable {}\n\n    constructor() {}\n\n    function swapExactEthForToken() external payable {\n        address[] memory path = new address[](2);\n        path[0] = uniswapRouter.WETH();\n        path[1] = address(token);\n\n        uniswapRouter.swapExactETHForTokensSupportingFeeOnTransferTokens{value: msg.value}(\n            0, // accept any amount of token\n            path,\n            _msgSender(),\n            block.timestamp\n        );\n    }\n\n    function quote(\n        uint amount0, \n        uint amount1\n    ) external view returns(uint256) {\n        (uint112 reserve0, uint112 reserve1, ) = uniswapPair.getReserves();\n        uint256 finalAmount;\n\n        if(amount0 != 0) {\n            (uint amountB) = uniswapRouter.quote(amount0, reserve0, reserve1);\n            finalAmount = amountB;\n        }\n\n        if(amount1 != 0) {\n            (uint amountB) = uniswapRouter.quote(amount1, reserve1, reserve0);\n            finalAmount = amountB;\n        }\n\n        return finalAmount;\n    }\n\n    function swapExactTokensForEth(\n        uint256 tokenAmount\n    ) external {\n        address[] memory path = new address[](2);\n        path[0] = address(token);\n        path[1] = uniswapRouter.WETH();\n        token.transferFrom(_msgSender(), address(this), tokenAmount);\n        token.approve(address(uniswapRouter), tokenAmount);\n        \n        uniswapRouter.swapExactTokensForETHSupportingFeeOnTransferTokens(\n            tokenAmount,\n            0,\n            path,\n            _msgSender(),\n            block.timestamp\n        );\n    }\n\n    event UpdateToken(address indexed tokenAddress);\n    function updateToken(\n        address tokenAddress\n    ) external onlyOwner {\n        token = IERC20(tokenAddress);\n        emit UpdateToken(tokenAddress);\n    }\n\n    event UpdateUniswaps(address indexed router, address indexed pair);\n    function updateUniswaps(\n        address router, \n        address pair\n    ) external onlyOwner {\n        uniswapRouter = IUniswapV2Router02(router);\n        uniswapPair = IUniswapV2Pair(pair);\n        emit UpdateUniswaps(router, pair);\n    }\n\n}",
  "sourcePath": "/Users/safi/Documents/gabe-project/contracts/PRJXSwap.sol",
  "compiler": {
    "name": "solc",
    "version": "0.8.7+commit.e28d00a7.Emscripten.clang"
  },
  "schemaVersion": "3.4.8",
  "updatedAt": "2023-07-26T13:59:58.825Z",
  "devdoc": {
    "kind": "dev",
    "methods": {
      "owner()": {
        "details": "Returns the address of the current owner."
      },
      "renounceOwnership()": {
        "details": "Leaves the contract without owner. It will not be possible to call `onlyOwner` functions anymore. Can only be called by the current owner. NOTE: Renouncing ownership will leave the contract without an owner, thereby removing any functionality that is only available to the owner."
      },
      "transferOwnership(address)": {
        "details": "Transfers ownership of the contract to a new account (`newOwner`). Can only be called by the current owner."
      }
    },
    "version": 1
  },
  "userdoc": {
    "kind": "user",
    "methods": {},
    "version": 1
  }
}